:100000000C94CB010C94FC010C94FC010C94FC01AD
:100010000C94FC010C94FC010C94FC010C94FC016C
:100020000C94FC010C94FC010C94FC010C94FC015C
:100030000C94FC010C94FC010C94FC010C94FC014C
:100040000C94FC010C94FC010C94FC010C94FC013C
:100050000C94FC010C94FC010C94FC010C948A108F
:100060000C94FC010C94FE100C94D4100C94FC0124
:100070000C94FC010C94FC010C94FC010C94FC010C
:100080000C94FC010C94FC010C94FC010C94FC01FC
:100090000C94FC010C94FC010C94FC010C943411A4
:1000A0000C94FC010C94FC010C94FC010C94FC01DC
:1000B0000C94FC010C94FC010C94FC010C94FC01CC
:1000C0000C94FC010C94FC010C94FC010C94FC01BC
:1000D0000C94FC010C94FC010C94FC010C94FC01AC
:1000E0000C94FC010C944B060C9488030C94840330
:1000F0000C9458120C9469030C9465030C94B50588
:100100000C9495020C949C030C946D060C94800343
:100110000C9470030C94A1060C9474060C948E033A
:100120000C9476030C94B6050C947A030C949B0300
:100130000C941C080C9492030C9496030C94590292
:100140000C94E2020C945A060C94E3050C944502BC
:100150000C9467020C9436020C94B7070C946D0350
:100160000C945B030C9461030C943A140C94A0035C
:100170000C944A060C94B40500407A10F35A00A07F
:10018000724E18090010A5D4E80000E87648170060
:1001900000E40B54020000CA9A3B000000E1F505A0
:1001A000000080969800000040420F000000A086EA
:1001B00001000000102700000000E803000000001C
:1001C0006400000000000A000000000001000000C0
:1001D00000002C76D888DC674F0823DFC1DFAE59DA
:1001E000E1B1B796E5E3E453C63AE651997696E86D
:1001F000E6C28426EB898C9B62ED407C6FFCEFBCF1
:100200009C9F40F2BAA56FA5F490055A2AF75C931B
:100210006B6CF9676DC11BFCE0E40D47FEF520E651
:10022000B500D0ED902E0300943577050080841E34
:10023000080000204E0A000000C80C333333330F8F
:10024000986E12831141EF8D2114893BE65516CF2C
:10025000FEE6DB18D1844B381BF77C1D901DA4BB38
:10026000E424203284725E228100C9F124ECA1E5ED
:100270003D2700002100240027002A002D00300027
:10028000330001010000040107010A0100002200FF
:10029000250028002B002E00310034000201000050
:1002A000050108010B0100000A0B02090C0D0E08E4
:1002B000070304010000000000000000000000002F
:1002C000000000000000000000000000000000002E
:1002D00000001211100000000000000000000000EB
:1002E00000000000000000000000000000002000EE
:1002F0002300260029002C002F00320000010000FE
:100300000301060109010505050507050808080898
:10031000020202020A0A080804040404010101019D
:100320000101010103030303030303030407070798
:100330000C0C0C0C0C0C0C0C02020202060606063D
:10034000060606060B0B0B0B0B0B0B0B010210200A
:1003500020080810204010204080020102010804FB
:10036000020101020408102040808040201008048F
:1003700002018004020180402010080402010804E8
:10038000020101020408102040800102040810202C
:10039000408058123A1411241FBECFEFD1E2DEBFC5
:1003A000CDBF00E00CBF13E0A0E0B2E0E8E2F6E36E
:1003B00000E00BBF02C007900D92A039B107D9F73A
:1003C00025E0A0E9B3E001C01D92AA33B207E1F72E
:1003D00011E0CAECD1E000E006C021970109802FAE
:1003E000FE010E94D418C93CD10780E00807A9F794
:1003F0000E94D7120C94021B0C940000CF92DF9243
:10040000EF92FF92CF93DF93B0911E05A0E0811190
:10041000AB2F80911F0590E0880F991FAC014451CC
:100420005D4FC0902405D0902505E0902605F09002
:10043000270530E020E0FA01C591D491E881B901A7
:1004400090E080E0EB23EA130AC02F5F3F4F6C156A
:100450007D058E059F0578F36FEF7FEFCB01DF9170
:10046000CF91FF90EF90DF90CF900895FC01538DD6
:10047000448D252F30E0842F90E0821B930B54177E
:1004800010F0CF96089501970895FC01918D828D0B
:10049000981761F0A28DAE0FBF2FB11D5D968C91A4
:1004A000928D9F5F9F73928F90E008958FEF9FEFE3
:1004B0000895FC01918D828D981731F0828DE80F9F
:1004C000F11D858D90E008958FEF9FEF0895FC0159
:1004D000918D228D892F90E0805C9F4F821B910926
:1004E0008F7399270895FC01A48DA80FB92FB11D12
:1004F000A35ABF4F2C91848D90E001968F7399275A
:10050000848FA689B7892C93A089B1898C91837037
:1005100080648C93938D848D981306C00288F38930
:10052000E02D80818F7D80830895EF92FF920F935D
:100530001F93CF93DF93EC0181E0888F9B8D8C8D8F
:1005400098131AC0E889F989808185FF15C09FB783
:10055000F894EE89FF896083E889F9898081837046
:10056000806480839FBF81E090E0DF91CF911F91F5
:100570000F91FF90EF900895F62E0B8D10E00F5F16
:100580001F4F0F731127E02E8C8D8E110CC00FB6EC
:1005900007FCFACFE889F989808185FFF5CFCE0184
:1005A0000E947302F1CFEB8DEC0FFD2FF11DE35A8A
:1005B000FF4FF0829FB7F8940B8FEA89FB89808107
:1005C0008062CFCFCF93DF93EC01888D8823B9F081
:1005D000AA89BB89E889F9898C9185FD03C080814E
:1005E00086FD0DC00FB607FCF7CF8C9185FFF2CFCB
:1005F000808185FFEDCFCE010E947302E9CFDF91AC
:10060000CF91089586E594E00E94670221E0892B4E
:1006100009F420E0822F089580E090E0892B29F0F2
:100620000E94020381110E94000080E090E0892B6B
:1006300049F080E090E0892B29F00E9400008111B0
:100640000E94000080E090E0892B49F080E090E07B
:10065000892B29F00E94000081110E94000080E097
:1006600090E0892B49F080E090E0892B29F00E94EE
:10067000000081110C94000008958150823108F02F
:100680005AC0E82FF0E08827E75BFC4F8F4F0C94AF
:10069000D41869036D035B03610365039B03700357
:1006A00076037A038003840388038E0392039B03FB
:1006B00096039C03A003809180008F778093800035
:1006C0000895809180008F7DF9CF80918000877F91
:1006D000F5CF84B58F7784BD089584B58F7DFBCF2A
:1006E0008091B0008F778093B00008958091B00022
:1006F0008F7DF9CF809190008F778093900008953F
:10070000809190008F7DF9CF80919000877FF5CF09
:100710008091A0008F778093A00008958091A00021
:100720008F7DF9CF8091A000877FF5CF8091200148
:100730008F77809320010895809120018F7DF9CFDC
:1007400080912001877FF5CFCF93DF93282F30E072
:10075000F901EA55FD4F8491F901E45BFC4FD49116
:10076000F901EA5FFC4FC491CC23A1F081110E94F2
:100770003D03EC2FF0E0EE0FFF1FE451FD4FA5917C
:10078000B491EC91ED2381E090E009F480E0DF91F9
:10079000CF91089580E090E0FACF1F93CF93DF933D
:1007A000282F30E0F901EA55FD4F8491F901E45B0F
:1007B000FC4FD491F901EA5FFC4FC491CC23A9F01E
:1007C000162F81110E943D03EC2FF0E0EE0FFF1F6A
:1007D000E457FD4FA591B4918FB7F894EC911111A6
:1007E00008C0D095DE23DC938FBFDF91CF911F919E
:1007F0000895DE2BF8CFCF93DF9390E0FC01E45B0C
:10080000FC4F24918A5F9C4FFC0184918823C9F09E
:1008100090E0880F991FFC01EE58FD4FA591B4910F
:10082000FC01E457FD4FC591D49161110DC09FB7F4
:10083000F8948C91209582238C9388812823288397
:100840009FBFDF91CF910895623051F49FB7F89424
:100850003C91822F809583238C93E8812E2BEFCFC0
:100860008FB7F894EC912E2B2C938FBFEACF9091F9
:100870007B00977F90937B008653806480937C00FD
:1008800080917A00806480937A0080917A0086FD5E
:10089000FCCF809178009091790008953FB7F8944B
:1008A00080914E0490914F04A0915004B091510456
:1008B00026B5A89B05C02F3F19F00196A11DB11DBB
:1008C0003FBFBA2FA92F982F8827BC01CD01620FF7
:1008D000711D811D911D42E0660F771F881F991FB2
:1008E0004A95D1F708958F929F92AF92BF92CF927F
:1008F000DF92EF92FF924B015C010E944E046B016C
:100900007C010E944E046C197D098E099F09683E86
:10091000734081059105A8F321E0821A9108A1088E
:10092000B10888EEC80E83E0D81EE11CF11C8114CA
:100930009104A104B10429F7FF90EF90DF90CF90CC
:10094000BF90AF909F908F900895CF92DF92EF92DB
:10095000FF920F931F93CF93DF93CDB7DEB7C054B1
:10096000D1400FB6F894DEBF0FBECDBF2FB7F894BD
:100970008091520490915304A0915404B091550475
:100980002FBF409120055091210560912205709163
:1009900023058C019D01041B150B260B370BB90198
:1009A000A801403D57406105710590F480912805EC
:1009B000C05CDE4F0FB6F894DEBF0FBECDBFDF9137
:1009C000CF911F910F91FF90EF90DF90CF900895FE
:1009D0008093200590932105A0932205B0932305D1
:1009E00010921B0510921A05109219051092180505
:1009F0001092170562E080911C050E94FB0361E0E4
:100A000070E080E090E00E94730461E080911C053A
:100A10000E94FB0360E080911C050E94CD03809141
:100A20001D058551823020F58BE291E10197F1F7A8
:100A300062E080911C050E94FB038091290590E0F3
:100A40008230910538F0880F991F880F991F0597FC
:100A50000197F1F7F89480E00E94FE016F3F7F4F0D
:100A60008F4F9F4F61F410922805789480E0A0CFBB
:100A700064E170E080E090E00E947304D9CF81E0EF
:100A80000E94FE016F3F7F4F8F4F9F4F61F38E019A
:100A90000F5F1F4F6E018FEBC81A8EEFD80A7801D7
:100AA00080E00E94FE01F70160837183828393835B
:100AB00081E00E94FE01F70164837583868397833A
:100AC000F8E0EF0EF11CEC14FD0451F7789430E0DF
:100AD00020E0F801C080D180E280F380448155811C
:100AE00066817781FFEFCF16DF06EF06FF0631F054
:100AF0004F3F8FEF58076807780719F410922805C1
:100B0000B5CFF90183E0F595E7958A95E1F7E95EC0
:100B1000FA4F8081880FC416D506E606F70610F155
:100B200080832F5F3F4F085F1F4F2832310589F6C2
:100B300040911B052091170580911805280F332738
:100B4000331F80911905280F311D80911A05820FDE
:100B5000932F911D99274817190681F681E08093FC
:100B6000280526CF8160DCCF08950895AF92BF920B
:100B7000CF92DF92EF92FF920F931F93CF93DF9369
:100B80006C017B018B01040F151FEB015E01AE1898
:100B9000BF08C017D10759F06991D601ED91FC91BA
:100BA0000190F081E02DC6011995892B79F7C501D7
:100BB000DF91CF911F910F91FF90EF90DF90CF9039
:100BC000BF90AF90089508952091D403260F332746
:100BD000331F21323105ECF420911D04FC0190E01B
:100BE00080E0243069F082E00895A091D40321913F
:100BF000AC014C545C4FA40FB52FB11D2C93019642
:100C0000861798F38091D403680F6093D40380E033
:100C1000089581E0089510921D0481E080931C04E2
:100C20001092F70361E084E10E94CD0361E085E169
:100C30000E94CD03E9EBF0E080818E7F808380818C
:100C40008D7F808388E48093B80085E48093BC0026
:100C50000895CF93DF9391E09093B3038823B9F085
:100C6000C091B800D091BA008091BC008A7B80937B
:100C7000BC0060E084E10E94CD0360E085E10E9459
:100C8000CD030E940B06D093BA00C093B800DF9149
:100C9000CF9108950895E0914C0480914B04E8179A
:100CA00030F4F0E0ED56FC4F808190E008958FEF36
:100CB0009FEF089590914C0480914B042FEF3FEFEC
:100CC000981748F4E92FF0E0ED56FC4F208130E012
:100CD0009F5F90934C04C901089580914B049091BB
:100CE0004C04891B990B0895CF92DF92EF92FF92EB
:100CF0000F931F93CF93DF937C01CB018A01209147
:100D00002304222389F0EB016B01C40ED51ECC1500
:100D1000DD0569F06991D701ED91FC910190F081B9
:100D2000E02DC7011995F3CF642F0E94E405C80197
:100D3000DF91CF911F910F91FF90EF90DF90CF90B7
:100D40000895CF93DF931F92CDB7DEB769832091CB
:100D500023042223F9F020914904203258F021E0A5
:100D600030E0FC013383228390E080E00F90DF913C
:100D7000CF91089580914A04E82FF0E0EC5DFB4F9D
:100D8000998190838F5F80934A048093490481E026
:100D900090E0ECCF61E0CE0101960E94E405F7CF30
:100DA000CF92DF92EF92FF920F931F93CF93DF9337
:100DB000FC01C48121E020932304C09344041092D9
:100DC0004A04109249048385682B83EF94E00E94C3
:100DD000A106D0914904D13208F092C00E944E047D
:100DE0006B017C0180911D04811165C082E08093BC
:100DF0001D0481E080931C048FEF80931B041092EC
:100E00001A04D0931904A4E2B4E0E9EFF3E080E01F
:100E1000D81385C01092F8038091F803CC0FC82B2B
:100E2000C093F8038091F703813009F07CC01092E1
:100E3000F7030E944E046B017C018091F8038093BC
:100E4000BB0080911F0490912004A0912104B091D7
:100E50002204892B8A2B8B2B99F00E944E0400913F
:100E60001F041091200420912104309122046C1958
:100E70007D098E099F090617170728073907E0F132
:100E80008091BC0083FDD9CF85EC8093BC000E948B
:100E90004E046B017C0180911D04823009F445C031
:100EA00080911B048F3F61F180911B04803241F1DE
:100EB00080911B0425C080911F0490912004A09173
:100EC0002104B0912204892B8A2B8B2B09F48ACF21
:100ED0000E944E0400911F041091200420912104CF
:100EE000309122046C197D098E099F090617170796
:100EF0002807390708F076CF80911E040E94290642
:100F000010924A041092490410922304DF91CF9169
:100F10001F910F91FF90EF90DF90CF9008959D91DA
:100F200091938F5F75CF85EEB0CF80911F04909124
:100F30002004A0912104B0912204892B8A2B8B2BB1
:100F400009F4A9CF0E944E0400911F0410912004BF
:100F500020912104309122046C197D098E099F098A
:100F6000061717072807390708F095CFC5CF90E077
:100F700080E008950F931F93CF938C01C62F0E949A
:100F8000D0066C2F6460C8010E94D0066C2F6B7F66
:100F9000C8010E94D00683EC90E00197F1F7CF9151
:100FA0001F910F9108950F931F93CF93DF938C019F
:100FB000D62FC42F607F642B0E94BA0780E1D89F90
:100FC000B00111246C2BC801DF91CF911F910F91BB
:100FD0000C94BA07CF93DF9300D000D01F921F92DA
:100FE000CDB7DEB798E0EBE0F2E0DE0111960190BC
:100FF0000D929A95E1F790913205961710F46FEFE4
:10100000690F262F30E0220F331F41E050E04C0FD4
:101010005D1F240F351FF9016081680F606840E093
:101020008AE295E028960FB6F894DEBF0FBECDBFDA
:10103000DF91CF910C94D30741E00E94D30781E068
:1010400090E008950F931F93CF93DF93EC01888175
:101050009981009759F02A813B812617370730F094
:1010600081E0DF91CF911F910F9108958B016F5F08
:101070007F4F0E94081A009759F0998388831B8339
:101080000A832C813D81232B59F7FC011082E8CF84
:1010900080E0E7CFEF92FF920F931F93CF93DF9300
:1010A0006115710541F480E0DF91CF911F910F919F
:1010B000FF90EF90089541155105B1F07B01EC01CF
:1010C0000C811D81040F151FB8010E94220888237E
:1010D00051F3288139818C819D81B701820F931F43
:1010E0000E94FB1A1D830C8381E0DECFCF93DF9338
:1010F000EC0188819981009711F00E947F19198273
:1011000018821D821C821B821A82DF91CF91089562
:10111000CF93DF93EC01FB014481558160817181A4
:101120000E944A08811103C0CE010E947608CE01B8
:10113000DF91CF910895EF92FF920F931F93CF937A
:10114000DF93EC017B018A01BA010E942208811120
:101150000BC0CE010E947608CE01DF91CF911F9186
:101160000F91FF90EF9008951D830C83B701888144
:1011700099810E94FB1AF0CFFB0101900020E9F752
:101180003197AF01461B570B0C949B080F931F938D
:10119000CF93DF93CDB7DEB762970FB6F894DEBF7B
:1011A0000FBECDBF8C01CB01F801118210821382DA
:1011B0001282158214824AE0BE016F5F7F4F0E9447
:1011C0006814BE016F5F7F4FC8010E94BC08629621
:1011D0000FB6F894DEBF0FBECDBFDF91CF911F9148
:1011E0000F910895EF92FF920F931F93CF93DF9388
:1011F000CDB7DEB7E3970FB6F894DEBF0FBECDBF15
:101200007C01CB01BA01F701118210821382128294
:10121000158214828E010F5F1F4F22E044E00E946E
:101220004A14009789F0BC01C7010E94BC08E396EC
:101230000FB6F894DEBF0FBECDBFDF91CF911F91E7
:101240000F91FF90EF900895C7010E947608EFCFAD
:10125000CF93DF93EC01FB018617970749F060817C
:1012600071816115710541F0448155810E949B088F
:10127000CE01DF91CF9108950E947608F9CFFC014D
:101280001182108213821282158214820C94280912
:10129000FC01118210821382128215821482FB01DA
:1012A00001900020E9F73197AF01461B570B0C94D2
:1012B0009B08FC0180819181009711F00C947F19AB
:1012C000089585ED8093BC0080911F0490912004C7
:1012D000A0912104B09122040796A11DB11D23E025
:1012E000B695A795979587952A95D1F72091BC003B
:1012F00024FD03C010921D04089540911F045091D5
:1013000020046091210470912204452B462B472B29
:1013100069F30097A105B10541F02AE22A95F1F79A
:1013200000C00197A109B109E1CF80911E040C947E
:101330002906FF920F931F93CF93DF93EC018B014C
:101340008CEFF82EC230D1050CF4F12C86E08C9F86
:10135000F0018D9FF00D1124E150FB4F2481358168
:10136000D80114968D919C91159728173907D1F4BF
:10137000808191816D917C91009709F43FC0611546
:101380007105C9F5232BE9F1DC018C9190E008C0CF
:10139000232BB9F1FB01808190E091958195910912
:1013A000892B79F16C2F8F2D0E94EA0744E150E0E0
:1013B00063E472E08AE295E00E94B6056C2F8F2DFF
:1013C0000E94EA07F80144815581608171818AE2B7
:1013D00095E00E94B60526E02C9FC0012D9F900D40
:1013E0001124B80181509B4FDF91CF911F910F9134
:1013F000FF900C9428090E94F21AD2CF6115710552
:1014000039F6DF91CF911F910F91FF9008952F92A0
:101410003F924F925F926F927F928F929F92AF9284
:10142000BF92CF92DF92EF92FF920F931F93CF93D1
:10143000DF93CDB7DEB7A2970FB6F894DEBF0FBE2D
:10144000CDBF84E00E94A4039C8F8B8F81E02B8D05
:101450003C8D232B09F080E08093040283E10E94FD
:10146000A4038C0181E00115110509F080E080934F
:10147000920385E00E94A403FF24F394009709F4EB
:10148000F12C20910302222339F1892B29F5809137
:101490000102909102020196843091050CF065C022
:1014A000909302028093010267E572E08FEF94E06F
:1014B0000E94BC0867E572E085E095E00E94BC08E8
:1014C00067E572E08BE095E00E94BC0867E572E09A
:1014D00081E195E00E94BC08F09203028FE10E9436
:1014E000A403FF24F394009709F4F12C2091000247
:1014F000222331F1892B21F5809190039091910362
:10150000019686309105A4F5909391038093900302
:1015100067E572E08FEF94E00E94BC0867E572E037
:1015200085E095E00E94BC0867E572E08BE095E0FD
:101530000E94BC0867E572E081E195E00E94BC086A
:10154000F09200020E94A504882341F080911D05BD
:101550008C3009F46AC088F48B3041F1C12CD12C55
:1015600070ECE72E7FE7F72E4BC081E090E098CF3C
:101570001092910310929003CBCF8551823070F777
:10158000B09019056B2D70E0762F662766277F7760
:1015900080911A05682B90E080E00E94F3162DECF4
:1015A0003CEC4CEC5DE30E9454175BC06091190564
:1015B00070E090E080E00E94F3164B015C01F09037
:1015C0001A05F7FE0AC0AC019B0160E070E080E8FC
:1015D0009FEB0E9462184B015C016F2D6F7070E0F1
:1015E00090E080E00E94F5162DEC3CEC4CEC5DE3C5
:1015F0000E945417A50194010E9463186B017C019D
:101600000E94A504882351F080911D058B3030F095
:101610008D3080F18551823008F4ECC0412C512C82
:1016200060EC662E6FE7762E43C0B09019056B2DE7
:1016300070E090E080E00E94F3166B017C01609105
:101640001A056F7070E090E080E00E94F5162DECB6
:101650003CEC4CEC5DE30E945417A70196010E94FC
:1016600063186B017C01B7FECBCFF7FAF094F7F863
:10167000F094C6CF6091180570E090E080E00E9481
:10168000F5162DEC3CEC4CEC5DE30E9454174B013D
:101690005C016091170570E090E080E00E94F51613
:1016A0009B01AC01C501B4010E9463182B013C01F0
:1016B00086E30E9437045C0187E30E9437044C01F3
:1016C00088E30E94370498A38F8F89E30E94370430
:1016D0009AA389A383E00E94A4039E8F8D8F80E14B
:1016E0000E94A4039A8F898F012B81F4809190032B
:1016F000909191038230910509F42AC40CF08CC0BA
:10170000009709F441C4019709F406C424E630E0C7
:10171000D5010E94DC182FEF33E040E050E00E943A
:101720001218190124E630E0D4010E94DC182FEFD2
:1017300033E040E050E00E941218490124E630E016
:10174000AF8DB8A10E94DC182FEF33E040E050E0ED
:101750000E941218890124E630E0A9A1BAA10E94D2
:10176000DC182FEF33E040E050E00E9412185901DE
:101770008B8D9C8D892B09F076C098E22916310457
:101780002CF461E08D8D9E8D019709F060E08BE077
:101790000E94CD038BE00E94A403682F8CE00E947E
:1017A000CD0320E030E040EE51E4C701B6010E94D5
:1017B000CF1861E018162CF037E4831691040CF46E
:1017C00060E08DE00E94CD0320E030E040E451E491
:1017D000C701B6010E94EE16682F661F6627661FB6
:1017E0008FE00E94CD0361E0073411050CF06AC060
:1017F00060E068C06091170570911805762767272B
:10180000762790E080E00E94F3162DEC3CEC4CEC47
:101810005DE30E9454174ACF8430910509F4D0C08B
:101820000CF4CAC3059709F071CF1A8E198E9CE388
:10183000A92EB12C04E610E02FE5822E912C34E184
:10184000232E312C412C512C40E7642E41E4742E80
:10185000C12CD12C54E3E52E52E4F52E2B8D3C8D7A
:10186000232B09F4CEC086E00E94A40361E0892BFB
:1018700009F060E08BE00E94CD0387E00E94A403A2
:1018800061E0892B09F060E08CE00E94CD0388E0E4
:101890000E94A40361E0892B09F060E08DE00E94C2
:1018A000CD0389E00E94A40361E0892B09F060E088
:1018B0008FE00E94CD038AE00E94A40361E0892B9F
:1018C00009F096CF8EE00E94CD03898D9A8D892BE9
:1018D00009F0C7C360E08BE00E94CD0360E08CE0BC
:1018E0000E94CD0360E08FE00E94CD0361E08DE0B7
:1018F0000E94CD039FE0A916B1040CF0FFC38091B4
:101900009203811174C360E772E0CE0101960E94D8
:101910004809BE016F5F7F4F90E080E00E94990907
:10192000CE0101960E94590960E872E0CE0101964D
:101930000E944809BE016F5F7F4F81E090E00E94E6
:101940009909CE0101960E9459096CE872E0CE0116
:1019500001960E944809BE016F5F7F4F82E090E0D0
:101960000E949909CE0101960E9459096BE972E023
:10197000CE0101960E944809BE016F5F7F4F83E050
:1019800090E00E949909CE0101960E945909A29601
:101990000FB6F894DEBF0FBECDBFDF91CF911F9180
:1019A0000F91FF90EF90DF90CF90BF90AF909F90FE
:1019B0008F907F906F905F904F903F902F90089501
:1019C000E5E0AE2EB12C0CE310E0FDE28F2E912C61
:1019D000A8E22A2E312C412C512CB8E46B2EB2E413
:1019E0007B2EC12CD12C80EEE82E81E4F82E8B8D3D
:1019F0009C8D21E030E03A8F298F892B09F4C6CEE7
:101A000032CF21E030E03E8F2D8FBBCE6FE173E00F
:101A10008430910551F069E173E0843091052CF038
:101A20006EE273E0059709F066C3CE0101960E944D
:101A30004809BE016F5F7F4F81E090E00E949909E5
:101A4000CE0101960E945909B101CE010D960E9466
:101A5000C608B701A601CE0107960E94F20867E307
:101A600073E0CE0101960E944809BE01695F7F4F75
:101A7000CE0101960E9488087C0144E050E06AE3B0
:101A800073E00E944A08811103C0C7010E947608D2
:101A9000BE01635F7F4FC7010E948808BC01CE0171
:101AA00043960E943F09BE016D5E7F4F82E090E049
:101AB0000E949909CE0143960E945909CE010196D0
:101AC0000E945909CE0107960E945909CE010D9630
:101AD0000E945909B801CE010D960E94C608B401B2
:101AE000CE0107960E94C6086FE373E0CE0101960F
:101AF0000E944809BE01695F7F4FCE0101960E9496
:101B000088088C0143E050E064E473E00E944A08D6
:101B1000811103C0C8010E947608BE01635F7F4F38
:101B2000C8010E948808BC01CE0143960E943F096B
:101B3000BE016D5E7F4F83E090E00E949909CE0167
:101B400043960E945909CE0101960E945909CE017F
:101B500007960E945909CE010D9617CF8091010278
:101B600090910202019709F097C08091040268E504
:101B700072E0811102C063E672E0CE0101960E941C
:101B80004809BE016F5F7F4F90E080E00E94990995
:101B9000CE0101960E945909B701A601CE01079610
:101BA0000E94F20868E473E0CE0101960E944809A1
:101BB000BE01695F7F4FCE0101960E948808BC017B
:101BC000CE010D960E943F09BE01635F7F4F81E009
:101BD00090E00E949909CE010D960E945909CE010C
:101BE00001960E945909CE0107960E945909B30136
:101BF000A201CE0107960E94F2086FE473E0CE01C5
:101C000001960E944809BE01695F7F4FCE0101968F
:101C10000E948808BC01CE010D960E943F09BE01BA
:101C2000635F7F4F82E090E00E949909CE010D969C
:101C30000E945909CE0101960E945909CE010796CA
:101C40000E945909B101CE0107960E94C60869E5B4
:101C500073E0CE0101960E944809BE01695F7F4F83
:101C6000CE0101960E948808BC01CE010D960E940B
:101C70003F09BE01635F7F4F83E090E00E949909B6
:101C8000CE010D960E945909CE0101960E94590974
:101C9000CE0107960E94590980910102909102029B
:101CA000029709F095C08091040268E572E0811105
:101CB00002C063E672E0CE0101960E944809BE01AF
:101CC0006F5F7F4F90E080E00E949909CE010196FE
:101CD0000E945909B401CE0107960E94C60863E626
:101CE00073E0CE0101960E944809BE01695F7F4FF3
:101CF000CE0101960E948808BC01CE010D960E947B
:101D00003F09BE01635F7F4F81E090E00E94990927
:101D1000CE010D960E945909CE0101960E945909E3
:101D2000CE0107960E945909B801CE0107960E947C
:101D3000C60869E673E0CE0101960E944809BE011B
:101D4000695F7F4FCE0101960E948808BC01CE01D9
:101D50000D960E943F09BE01635F7F4F82E090E0D5
:101D60000E949909CE010D960E945909CE01019653
:101D70000E945909CE0107960E945909B501CE016A
:101D800007960E94C6086FE673E0CE0101960E9496
:101D90004809BE01695F7F4FCE0101960E94880805
:101DA000BC01CE010D960E943F09BE01635F7F4FCB
:101DB00083E090E00E949909CE010D960E94590996
:101DC000CE0101960E945909CE0107960E94590939
:101DD0008091010290910202039709F0D8CD809181
:101DE000040268E572E0811102C063E672E0CE0190
:101DF00001960E944809BE016F5F7F4F90E080E02E
:101E00000E949909CE0101960E9459098BE00E9417
:101E1000A403BC01CE0107960E94C60868E773E0E0
:101E2000CE0101960E944809BE01695F7F4FCE0135
:101E300001960E948808BC01CE010D960E943F09C0
:101E4000BE01635F7F4F81E090E00E949909CE015F
:101E50000D960E945909CE0101960E945909CE01A2
:101E600007960E9459098CE00E94A403BC01CE0190
:101E700007960E94C60860E873E0CE0101960E94B2
:101E80004809BE01695F7F4FCE0101960E94880814
:101E9000BC01CE010D960E943F09BE01635F7F4FDA
:101EA00082E090E00E949909CE010D960E945909A6
:101EB000CE0101960E945909CE0107960E94590948
:101EC0008DE00E94A403BC01CE0107960E94C608C3
:101ED00068E873E0CE0101960E944809BE01695F7F
:101EE0007F4FCE0101960E948808BC01CE010D965D
:101EF0000E943F09BE01635F7F4F83E090E00E9434
:101F00009909CE010D960E945909CE0101960E94B1
:101F10005909CE01079639CD21E030E03A8F298F5B
:101F200036E4A32EB12C0AE510E046E4842E912C71
:101F30005EE1252E312C412C512C60EF662E61E4A0
:101F4000762EC12CD12C78E1E72E72E4F72E86CCC8
:101F500081E090E09A8F898FA4E1AA2EB12C05E54B
:101F600010E0B7E38B2E912C8AE0282E312C412CE7
:101F7000512C98EC692E91E4792EC12CD12C24E0BF
:101F8000E22E22E4F22E6ACC50E5A52EB12C02E31B
:101F900010E068E2862E912C7CE3272E312C412C18
:101FA000512CE0E76E2EE2E47E2EC12CD12CF8EC11
:101FB000EF2EF1E4FF2E1BCD8AE5A82EB12C08E20E
:101FC00010E09EE1892E912C26E4222E312C412C0A
:101FD000512C30EA632E32E4732EC12CD12C40EB0D
:101FE000E42E41E4F42E03CD892B09F488CC8091B2
:101FF0009203811154C069EA72E0CE0101960E94F9
:102000004809BE016F5F7F4F90E080E00E94990910
:10201000CE0101960E9459096BEB72E0CE01019648
:102020000E944809BE016F5F7F4F81E090E00E94EF
:102030009909CE0101960E9459096CEC72E0CE011B
:1020400001960E944809BE016F5F7F4F82E090E0D9
:102050000E949909CE0101960E9459096DED72E026
:1020600087CC9FE0A916B10414F220E030E04CE0E8
:1020700052E4C701B6010E94CF1818160CF4B7CF6E
:10208000898D9A8D24E1221631040CF4ADCF31E50F
:10209000831691040CF0A8CF892B09F430CC8091E1
:1020A0009203882309F45ACD6CEE72E0CE010196BA
:1020B0000E944809BE016F5F7F4F90E080E00E9460
:1020C0009909CE0101960E9459098091900390913F
:1020D00091036EE073E08230910509F4A6CC0CF018
:1020E00095CC6FEF72E0009709F49FCC66E073E047
:1020F000019709F49ACC67E572E097CC20E030E0D4
:102100004CE052E4C701B6010E94CF1818160CF437
:10211000F6CBB6CF1F920F920FB60F9211242F93CA
:102120003F938F939F93AF93BF938091520490916D
:102130005304A0915404B091550430914D0423E010
:10214000230F2D3758F50196A11DB11D20934D0485
:102150008093520490935304A0935404B093550475
:1021600080914E0490914F04A0915004B09151047D
:102170000196A11DB11D80934E0490934F04A0932E
:102180005004B0935104BF91AF919F918F913F91B3
:102190002F910F900FBE0F901F90189526E8230FD8
:1021A0000296A11DB11DD2CF1F920F920FB60F92B2
:1021B00011240BB60F922F933F934F935F936F931E
:1021C0007F938F939F93AF93BF93EF93FF9386E596
:1021D00094E00E947302FF91EF91BF91AF919F91A4
:1021E0008F917F916F915F914F913F912F910F90C0
:1021F0000BBE0F900FBE0F901F9018951F920F925D
:102200000FB60F9211240BB60F922F938F939F93BB
:10221000EF93FF93E0916604F09167048081E09171
:102220006C04F0916D0482FD1DC0908180916F045B
:102230008F5F8F7320917004821741F0E0916F04DB
:10224000F0E0EA5AFB4F958F80936F04FF91EF9176
:102250009F918F912F910F900BBE0F900FBE0F90FB
:102260001F9018958081F2CF1F920F920FB60F9298
:1022700011240BB60F922F933F934F935F936F935D
:102280007F938F939F93AF93BF93EF93FF9380912F
:10229000B900887F803609F44DC008F040C088320C
:1022A00009F4A9C028F5803109F49DC0C8F4882339
:1022B00009F4FBC0883009F496C0FF91EF91BF91FB
:1022C000AF919F918F917F916F915F914F913F91CE
:1022D0002F910F900BBE0F900FBE0F901F9018956F
:1022E000883109F488C0803241F780931B0414C000
:1022F000803409F49DC040F48033B9F38833E9F6A3
:1023000080931B0485ECB0C0803509F485C0883506
:1023100009F496C0883489F60E946109CECF8839C5
:1023200009F48CC038F5883729F050F4883611F05C
:10233000803719F683E080931D041092F60357C08E
:10234000883809F47BC0803919F0803809F0B5CF9E
:102350008091F603803208F071C0E091F60381E0CD
:102360008E0F8093F6038091BB00F0E0EA52FC4FA1
:1023700080833DC0803B39F0E0F4803A09F479C0B5
:10238000883A09F09ACF84E080931D041092D50317
:102390001092D403E0914704F0914804199580917C
:1023A000D40381110FC081E08093D4031092B40351
:1023B00009C0803C09F4A6CF883C09F4A3CF883B30
:1023C00009F07BCFE091D50381E08E0F8093D50398
:1023D000F0E0EC54FC4F80818093BB009091D503DA
:1023E0008091D40329C08091F8038093BB0085ECD1
:1023F0008093BC0062CF90911A04809119049817C1
:1024000058F5E0911A0481E08E0F80931A04F0E0F1
:10241000E750FC4F8081E9CFE0911A0481E08E0FF4
:1024200080931A048091BB00F0E0E750FC4F80835A
:1024300090911A04809119049817C8F285E8D8CFB2
:10244000E0911A0481E08E0F80931A048091BB0002
:10245000F0E0E750FC4F808380911C0481115CCF39
:1024600081E08093F70384EA8093BC0010921D04FE
:1024700024CF85EC8093BC0010921D048091F6035C
:10248000803230F4E091F603F0E0EA52FC4F108223
:102490006091F60370E0E0914504F091460486ED0A
:1024A00093E019951092F60308CF10921B0434CFD5
:1024B000E6E5F4E01382128288EE93E0A0E0B0E05B
:1024C00084839583A683B78327E132E03183208319
:1024D00025EC30E03587248724EC30E037872687E9
:1024E00020EC30E0318B208B21EC30E0338B228BE1
:1024F00022EC30E0358B248B26EC30E0378B268BBA
:10250000118E128E138E148EE3EFF4E0138212827A
:1025100084839583A683B78389E292E09183808345
:10252000EAE2F5E0138212828BE392E091838083EA
:1025300087E2848384E1818784E082871386A7E130
:10254000B5E082E015968C9315978BE016968C93E8
:102550001697EEE4F3E0E4911796EC931797E8E012
:10256000F3E0E4911896EC93189740E85EE360E09E
:1025700070E01D964D935D936D937C93509767E546
:1025800072E08FEF94E00E94480967E572E085E011
:1025900095E00E94480967E572E08BE095E00E94B3
:1025A000480967E572E081E195E00C944809789468
:1025B00084B5826084BD84B5816084BD85B5826048
:1025C00085BD85B5816085BD80916E0081608093F9
:1025D0006E00109281008091810082608093810062
:1025E0008091810081608093810080918000816072
:1025F000809380008091B10084608093B1008091CD
:10260000B00081608093B0008091910082608093DF
:102610009100809191008160809391008091900061
:102620008160809390008091A10082608093A100DE
:102630008091A10081608093A1008091A0008160C1
:102640008093A0008091210182608093210180917C
:10265000210181608093210180912001816080931C
:10266000200180917A00846080937A0080917A00C2
:10267000826080937A0080917A00816080937A00F2
:1026800080917A00806880937A001092C100109245
:102690004C0410924B0410924A04109249040E9478
:1026A0000B0684EB95E0909348048093470485EBF8
:1026B00095E0909346048093450410922F058091F5
:1026C0003405823018F098E090932F0580933205FE
:1026D00062E370E080E090E00E9473046091350551
:1026E0008AE295E00E94D00668EE73E080E090E018
:1026F0000E94730460E38AE295E00E94BA07CBE48B
:10270000D6E4CE010197F1F760E38AE295E00E94FA
:10271000BA072197F1F760E38AE295E00E94BA07D1
:1027200083E592E00197F1F760E28AE295E00E948A
:10273000BA0760912F05606240E08AE295E00E944E
:10274000D30784E08093300540E06CE08AE295E0B6
:102750000E94D30740E061E08AE295E00E94D3073F
:10276000CBE3DFE1CE010197F1F782E08093310501
:1027700040E066E08AE295E00E94D30740E062E034
:102780008AE295E00E94D3072197F1F788E08093D1
:10279000350560E08AE295E00E94D00662E0809113
:1027A0001C050E94FB032FB7F8948091520490916E
:1027B0005304A0915404B09155042FBF805D9740FD
:1027C000A109B1098093200590932105A0932205CA
:1027D000B093230587E38093290560E083E00E949E
:1027E000FB0360E080E10E94FB0362E084E00E9462
:1027F000FB0362E085E00E94FB0362E083E10E944C
:10280000FB0362E08FE10E94FB0362E086E00E942E
:10281000FB0362E087E00E94FB0362E088E00E9425
:10282000FB0362E089E00E94FB0362E08AE00E9411
:10283000FB0361E08BE00E94FB0361E08CE00E94FF
:10284000FB0361E08DE00E94FB0361E08EE00E94EB
:10285000FB0361E08FE00E94FB0361E081E10E94E5
:10286000FB0361E082E10E94FB030E94070A0E94D1
:102870000C03FBCF81E195E00E9459098BE095E0C4
:102880000E94590985E095E00E9459098FEF94E074
:102890000C945909EF920F931F93CF93DF93E801A4
:1028A00034E047FD34E1042E000C550B57FF03C004
:1028B000519541955109E32E022F242FAE010E941C
:1028C0008D14CE01DF91CF911F910F91EF9008955C
:1028D000BB274A3031F4992322F4BDE290958195CB
:1028E0009F4F0C947414BB27FB015527AA27880F10
:1028F000991FAA1FA41710F0A41B83955051B9F774
:10290000A05DAA3308F0A95DA193009779F7B111F2
:10291000B1931192CB010C94DE168F929F92AF92DD
:10292000BF92CF92DF92EF92FF920F931F93CF93BC
:10293000DF9300D000D000D0CDB7DEB76A01F22E11
:10294000B02E102FFBE3AF2EA01608F41BE31F5F81
:10295000012F27E0AE014F5F5F4F0E940616BC01BA
:102960008981982F9970913009F44EC09BE2E1FC67
:1029700004C09E2D9170E0FC49C05E2D5071E82F7F
:10298000E87083FF55C084E0911101C083E0EF2D12
:10299000E81B8F1508F0E0E0D6018E2F20E25523CA
:1029A000C9F1992329F0D6019C93C60101966C01C7
:1029B00096012D5F3F4FE2FE33C08EE4D6018C932B
:1029C00091E411969C93119712968C93D9018E2FB6
:1029D00090E281112AC0E20FF32FF11D10828EEFD9
:1029E0009FEF29960FB6F894DEBF0FBECDBFDF91E3
:1029F000CF911F910F91FF90EF90DF90CF90BF90FC
:102A0000AF909F908F9008959DE2B7CF90E2B5CFA1
:102A10002D9381508111FCCFCE0ED11CE0E0C1CFAF
:102A20008EE6D6018C9391E6CCCF9D938150D1CF89
:102A3000482F447082FF3DC084E0911101C083E0C3
:102A40008F1510F4EF2DE81BD6018E2F20E25523B1
:102A500009F1992329F0D6019C93C60101966C01D6
:102A600096012D5F3F4FE2FE1BC089E4D6018C9397
:102A70008EE411968C93119786E412968C93D9016B
:102A80008E2F90E2882309F4A6CF9D938150FACF30
:102A90002D9381508111FCCFCE0ED11CE0E0D9CF17
:102AA00089E6D6018C938EE611968C93119786E673
:102AB000E4CF9B0177FF02C030E020E0A1E0B0E06E
:102AC000911102C0B0E0A0E0F9013196AE0FBF1F36
:102AD0008B2C912CBB2009F461C05401EFEFAE1A8E
:102AE000BE0AAA0DBB1DFA161B0619F014F04F2DD5
:102AF0004A1B511188C0E3FC59C07601A42FB0E2F3
:102B0000A1114FC0C40ED11C992309F45BC040E051
:102B1000D6011196F60190836D01552309F448C042
:102B2000012F060F9A81582F507184FF03C09133F3
:102B300009F4015010160CF047C0093008F008E005
:102B4000EEE2FE2E5B01A01AB108850191948194FA
:102B500091082F3F320729F4D601FC92F6013196F5
:102B60006F016217730794F1021713077CF5DB01FD
:102B7000A21BB30BAA24A394B12CAC0EBD1EAA0DAC
:102B8000BB1D11968C9121503109D6011196281543
:102B90003905F4F0F60180836D01DBCFB12CA12C57
:102BA000A0CFF701B1937F01A150AACF9111B0CF6F
:102BB000D601942F50E302C05D9391509111FCCF48
:102BC000C40ED11C40E0ACCF01E0BACF80E3DBCF34
:102BD0006217730731F4963388F4953311F4552353
:102BE00069F0F6018083FD01842F90E2811108C015
:102BF000A40FB11D1C9290E080E0F3CE81E3F1CFF1
:102C000091938150F3CF911183CF8ACF283008F070
:102C100027E03327DA01990F311D87FD9160009677
:102C20006105710539F432602E5F3D9330E32A95DA
:102C3000E1F708959F3F30F080387105610509F094
:102C40003C5F3C5F3D93913008F08068911DDF93BD
:102C5000CF931F930F93FF92EF92192F987F969522
:102C6000E92F96959695E90FFF27EE52FE4F99278B
:102C70003327EE24FF24A701E70105900894079469
:102C800028F4360FE71EF81E491F511D660F771FE7
:102C9000881F991F0694A1F70590079428F4E70E62
:102CA000F81E491F561FC11D770F881F991F661FE9
:102CB0000694A1F70590079428F4F80E491F561FB3
:102CC000C71FD11D880F991F661F771F0694A1F794
:102CD0000590079420F4490F561FC71FD81F990F5E
:102CE000661F771F881F0694A9F7849110951770A7
:102CF00041F0D695C79557954795F794E7941A955F
:102D0000C1F7E8E7F1E06894159015913591659168
:102D1000959105907FE27395E118F10A430B560BEC
:102D2000C90BD009C0F7E10CF11E431F561FC91F84
:102D3000D01D7EF4703311F48A95E6CFE8940150EB
:102D400030F0080F0AF40027021708F4202F23950B
:102D5000022F7A3328F079E37D932A95E9F710C0A2
:102D60007D932A9589F606949795679537951795DB
:102D70001794E118F10A430B560BC90BD00998F0D0
:102D800023957E9173957A3308F070E37C9320133A
:102D9000B8F77E9170617D9330F0839571E37D93F8
:102DA00070E32A95E1F71124EF90FF900F911F91A6
:102DB000CF91DF91992787FD90950895DC01FC0163
:102DC000672F71917723E1F7329704C07C916D935F
:102DD00070836291AE17BF07C8F308950E94301741
:102DE00008F481E00895E89409C097FB3EF49095BB
:102DF0008095709561957F4F8F4F9F4F9923A9F0D4
:102E0000F92F96E9BB279395F69587957795679562
:102E1000B795F111F8CFFAF4BB0F11F460FF1BC0A6
:102E20006F5F7F4F8F4F9F4F16C0882311F096E939
:102E300011C0772321F09EE8872F762F05C06623E7
:102E400071F096E8862F70E060E02AF09A95660FA0
:102E5000771F881FDAF7880F9695879597F9089559
:102E6000990F0008550FAA0BE0E8FEEF161617069B
:102E7000E807F907C0F012161306E407F50798F003
:102E8000621B730B840B950B39F40A2661F0232B1C
:102E9000242B252B21F408950A2609F4A140A69598
:102EA0008FEF811D811D08950E9467170C94D8171C
:102EB0000E94CA1738F00E94D11720F0952311F014
:102EC0000C94C1170C94C71711240C940C180E9471
:102ED000E91770F3959FC1F3950F50E0551F629F5E
:102EE000F001729FBB27F00DB11D639FAA27F00D63
:102EF000B11DAA1F649F6627B00DA11D661F829F8A
:102F00002227B00DA11D621F739FB00DA11D621F6E
:102F1000839FA00D611D221F749F3327A00D611D8B
:102F2000231F849F600D211D822F762F6A2F11246D
:102F30009F5750409AF0F1F088234AF0EE0FFF1FA0
:102F4000BB1F661F771F881F91505040A9F79E3FF7
:102F5000510580F00C94C1170C940C185F3FE4F3FA
:102F6000983ED4F3869577956795B795F795E7954D
:102F70009F5FC1F7FE2B880F911D9695879597F956
:102F8000089597F99F6780E870E060E008959FEFEB
:102F900080EC089500240A941616170618060906F0
:102FA000089500240A9412161306140605060895BF
:102FB000092E0394000C11F4882352F0BB0F40F447
:102FC000BF2B11F460FF04C06F5F7F4F8F4F9F4F87
:102FD000089557FD9058440F551F59F05F3F71F009
:102FE0004795880F97FB991F61F09F3F79F0879570
:102FF0000895121613061406551FF2CF4695F1DFF9
:1030000008C0161617061806991FF1CF8695710588
:10301000610508940895E894BB2766277727CB01BC
:1030200097F90895052E97FB1EF400940E94291825
:1030300057FD07D00E94311807FC03D04EF40C94C2
:10304000291850954095309521953F4F4F4F5F4F30
:10305000089590958095709561957F4F8F4F9F4F04
:103060000895A1E21A2EAA1BBB1BFD010DC0AA1FC9
:10307000BB1FEE1FFF1FA217B307E407F50720F0E1
:10308000A21BB30BE40BF50B661F771F881F991F5C
:103090001A9469F760957095809590959B01AC01A5
:1030A000BD01CF010895A29FB001B39FC001A39FAE
:1030B000700D811D1124911DB29F700D811D112471
:1030C000911D08955058BB27AA270E947A180C9486
:1030D000D8170E94CA1738F00E94D11720F039F48F
:1030E0009F3F19F426F40C94C7170EF4E095E7FB04
:1030F0000C94C117E92F0E94E91758F3BA17620719
:1031000073078407950720F079F4A6F50C940B1843
:103110000EF4E0950B2EBA2FA02D0B01B9019001F2
:103120000C01CA01A0011124FF27591B99F0593F36
:1031300050F4503E68F11A16F040A22F232F342F7E
:103140004427585FF3CF469537952795A795F040CC
:103150005395C9F77EF41F16BA0B620B730B840BE1
:10316000BAF09150A1F0FF0FBB1F661F771F881F99
:10317000C2F70EC0BA0F621F731F841F48F48795F1
:1031800077956795B795F7959E3F08F0B0CF9395E3
:10319000880F08F09927EE0F9795879508950E945C
:1031A000301708F48FEF0895EE0FFF1F881F8BBFB5
:1031B0000790F691E02D19940E945318B7FF0895D7
:1031C000821B930B08950F931F93CF93DF9382304D
:1031D000910510F482E090E0E0913805F091390516
:1031E00030E020E0B0E0A0E0309799F421153105FF
:1031F00009F44AC0281B390B24303105D8F58A81DF
:103200009B816115710589F1FB0193838283FE0126
:1032100011C0408151810281138148175907E0F0A4
:103220004817590799F4109761F012960C9312976A
:1032300013961C933296CF01DF91CF911F910F917E
:1032400008950093380510933905F4CF2115310501
:1032500051F04217530738F0A901DB019A01BD0173
:10326000DF01F801C1CFEF01F9CF909339058093C9
:103270003805CDCFFE01E20FF31F819391932250C9
:10328000310939832883D7CF20913605309137050E
:10329000232B41F420910702309108023093370527
:1032A0002093360520910502309106022115310543
:1032B00041F42DB73EB74091090250910A02241BF8
:1032C000350BE0913605F0913705E217F307A0F4CE
:1032D0002E1B3F0B2817390778F0AC014E5F5F4F6C
:1032E0002417350748F04E0F5F1F50933705409362
:1032F0003605819391939FCFF0E0E0E09CCFCF9390
:10330000DF930097E9F0FC01329713821282A091BB
:103310003805B0913905ED0130E020E01097A1F4B7
:1033200020813181820F931F20913605309137051E
:103330002817390709F061C0F0933705E093360587
:10334000DF91CF910895EA01CE17DF07E8F54A81B2
:103350005B819E0141155105B1F7E901FB83EA83C9
:1033600049915991C40FD51FEC17FD0761F4808175
:1033700091810296840F951FE90199838883828148
:1033800093819B838A83F0E0E0E012968D919C917B
:1033900013970097B9F52D913C911197CD010296A5
:1033A000820F931F20913605309137052817390772
:1033B00039F6309751F51092390510923805B093CF
:1033C0003705A0933605BCCFD383C283408151819A
:1033D000840F951FC817D90761F44E5F5F4F88812E
:1033E0009981480F591F518340838A819B81938320
:1033F00082832115310509F0B0CFF0933905E093B0
:1034000038059ECFFD01DC01C0CF13821282D7CFD9
:103410004F925F926F927F928F929F92AF92BF92E4
:10342000CF92DF92EF92FF920F931F93CF93DF9390
:103430008C01009799F4CB01DF91CF911F910F91EF
:10344000FF90EF90DF90CF90BF90AF909F908F90C4
:103450007F906F905F904F900C94E318FC01E60F03
:10346000F71F9C0122503109E217F30708F4AEC0A0
:10347000D901CD91DC911197C617D70720F1C5303E
:10348000D10578F0CE0104978617970750F0C61B38
:10349000D70B2297C193D1936D937C93CF010E9458
:1034A0007F19C801DF91CF911F910F91FF90EF908D
:1034B000DF90CF90BF90AF909F908F907F906F9054
:1034C0005F904F9008955B01AC1ABD0A4C018C0EC1
:1034D0009D1EA0913805B0913905512C412CF12C3D
:1034E000E12C109731F580913605909137058815BC
:1034F000990509F05CC04616570608F058C080913F
:10350000050290910602009741F48DB79EB7409155
:10351000090250910A02841B950BE817F90708F07D
:1035200055C0F0933705E0933605F9017183608348
:10353000B8CF8D919C91119712966C90129713961B
:103540007C901397A815B90559F56C0142E0C40E9B
:10355000D11CCA14DB0420F1AC014A195B09DA0161
:103560001296159780F06282738251834083D9014D
:103570006D937C93E114F10471F0D7011396FC93E1
:10358000EE9312978ECF22968C0F9D1FF901918397
:103590008083F301EFCFF0933905E093380581CFB5
:1035A0004816590608F42C017D01D3019ACFCB01AE
:1035B0000E94E3187C01009749F0AE01B8010E9417
:1035C000E91AC8010E947F1987016BCF10E000E063
:1035D00068CFFB01DC0102C001900D9241505040C8
:1035E000D8F70895FB01DC018D910190801901103D
:1035F000D9F3990B0895FB01DC0101900D92002095
:10360000E1F7089511E0CAECD1E000E006C0802F98
:10361000FE010E94D4182196011DCB3CD10780E009
:083620000807A9F7F894FFCF99
:10362800010100010100003A05800000004000147B
:10363800005400000000009502B6053602E2026759
:10364800024502590200000000A1067406B7074AA5
:10365800066D065A064B06000000001C08B605B7A2
:1036680007E30520202020202020202020202020C3
:1036780020202020202020004D4F44453A2041554D
:10368800544F004D4F44453A204D414E55454C004E
:1036980021212120555247454E4345202121210013
:1036A80046455520444554454354450056454E54D7
:1036B800494C4154494F4E204F4E004152524554B7
:1036C8002053595354454D4500212121204154543C
:1036D800454E54494F4E202121210050524F424C13
:1036E800454D452044455445435445005665726947
:1036F800666965722053797374656D6500416374FA
:10370800696F6E2072657175697365003D3D3D2076
:1037180053494D554C4154494F4E203D3D3D004E77
:103728004F524D414C004348414C4555520053457A
:10373800434845524553534500504C55494500525E
:1037480045534552564F4952205649444500494E23
:1037580043454E44494500543A004320533A0043F8
:103768004F323A00204C3A0054656D703A200048B8
:10377800756D204169723A200048756D20536F6C51
:103788003A2000434F323A20004C756D3A200052DF
:1037980065736572763A2000506F6D70653A200047
:1037A80056616E6E653A200056656E743A200000C8
:00000001FF
