:100000000C9462000C948A000C948A000C948A0070
:100010000C948A000C948A000C948A000C948A0038
:100020000C948A000C948A000C948A000C948A0028
:100030000C948A000C948A000C948A000C948A0018
:100040000C94B0070C948A000C9420080C94FA07C6
:100050000C948A000C948A000C948A000C948A00F8
:100060000C9452080C948A00000000002400270021
:100070002A0000000000250028002B0000000008D6
:10008000000201000003040700000000000000005F
:1000900000000000230026002900040404040404D6
:1000A0000404020202020202030303030303010227
:1000B00004081020408001020408102001020408F6
:1000C0001020710911241FBECFEFD8E0DEBFCDBFD5
:1000D00011E0A0E0B1E0ECE9F0E202C005900D9281
:1000E000A23EB107D9F723E0A2EEB1E001C01D9214
:1000F000A337B207E1F710E0C2E6D0E004C02197D1
:10010000FE010E944610C136D107C9F70E94D909E5
:100110000C944C100C940000CF92DF92EF92FF925F
:10012000CF93DF93B0916703A0E08111AB2F809153
:10013000680390E0880F991FAC0140575F4FC09053
:100140006D03D0906E03E0906F03F090700330E089
:1001500020E0FA01C591D491E881B90190E080E0F6
:10016000EB23EA130AC02F5F3F4F6C157D058E0508
:100170009F0578F36FEF7FEFCB01DF91CF91FF9079
:10018000EF90DF90CF900895833081F028F4813094
:1001900099F08230A9F008958730A9F08830C9F02D
:1001A0008430B1F4809180008F7D03C08091800005
:1001B0008F7780938000089584B58F7784BD0895EC
:1001C00084B58F7DFBCF8091B0008F778093B00096
:1001D00008958091B0008F7DF9CFCF93DF93282FC2
:1001E00030E0F901E458FF4F8491F901E255FF4FE7
:1001F000D491F901E656FF4FC491CC23A1F08111AF
:100200000E94C400EC2FF0E0EE0FFF1FE057FF4FFD
:10021000A591B491EC91ED2381E090E009F480E0A8
:10022000DF91CF91089580E090E0FACF1F93CF93B4
:10023000DF93282F30E0F901E458FF4F8491F90152
:10024000E255FF4FD491F901E656FF4FC491CC23FC
:10025000A9F0162F81110E94C400EC2FF0E0EE0FE0
:10026000FF1FEE58FF4FA591B4918FB7F894EC9112
:10027000111108C0D095DE23DC938FBFDF91CF91A1
:100280001F910895DE2BF8CFCF93DF9390E0FC0110
:10029000E255FF4F249186569F4FFC01849188239D
:1002A000C9F090E0880F991FFC01E859FF4FA59114
:1002B000B491FC01EE58FF4FC591D49161110DC06E
:1002C0009FB7F8948C91209582238C938881282362
:1002D00028839FBFDF91CF910895623051F49FB77B
:1002E000F8943C91822F809583238C93E8812E2B68
:1002F000EFCF8FB7F894EC912E2B2C938FBFEACFD2
:100300008E50806480937C0080917A00806480931A
:100310007A0080917A0086FDFCCF809178009091E0
:10032000790008953FB7F8948091A3029091A402B8
:10033000A091A502B091A60226B5A89B05C02F3FAB
:1003400019F00196A11DB11D3FBFBA2FA92F982FFB
:100350008827BC01CD01620F711D811D911D42E0F6
:10036000660F771F881F991F4A95D1F708958F92BE
:100370009F92AF92BF92CF92DF92EF92FF924B018A
:100380005C010E9492016B017C010E9492016C1938
:100390007D098E099F09683E734081059105A8F388
:1003A00021E0821A9108A108B10888EEC80E83E006
:1003B000D81EE11CF11C81149104A104B10429F799
:1003C000FF90EF90DF90CF90BF90AF909F908F9075
:1003D0000895CF92DF92EF92FF920F931F93CF93E6
:1003E000DF93CDB7DEB7C054D1400FB6F894DEBF6F
:1003F0000FBECDBF2FB7F8948091A7029091A802AD
:10040000A091A902B091AA022FBF40916903509117
:100410006A0360916B0370916C038C019D01041B56
:10042000150B260B370BB901A801403D574061055C
:10043000710590F480917103C05CDE4F0FB6F894A3
:10044000DEBF0FBECDBFDF91CF911F910F91FF9007
:10045000EF90DF90CF9008958093690390936A03A3
:10046000A0936B03B0936C03109264031092630328
:1004700010926203109261031092600362E0809117
:1004800065030E94440161E070E080E090E00E941A
:10049000B70161E0809165030E94440160E08091B2
:1004A00065030E941601809166038551823020F514
:1004B0008BE291E10197F1F762E0809165030E9480
:1004C00044018091720390E08230910538F0880FEA
:1004D000991F880F991F05970197F1F7F89480E00D
:1004E0000E948C006F3F7F4F8F4F9F4F61F410929F
:1004F0007103789480E0A0CF64E170E080E090E048
:100500000E94B701D9CF81E00E948C006F3F7F4FDE
:100510008F4F9F4F61F38E010F5F1F4F6E018FEB67
:10052000C81A8EEFD80A780180E00E948C00F7018B
:10053000608371838283938381E00E948C00F70142
:100540006483758386839783F8E0EF0EF11CEC14C7
:10055000FD0451F7789430E020E0F801C080D180AC
:10056000E280F3804481558166817781FFEFCF1669
:10057000DF06EF06FF0631F04F3F8FEF58076807A1
:10058000780719F410927103B5CFF90183E0F5955E
:10059000E7958A95E1F7E05AFC4F8081880FC416F1
:1005A000D506E606F70610F180832F5F3F4F085F00
:1005B0001F4F2832310589F6409164032091600372
:1005C00080916103280F3327331F80916203280F26
:1005D000311D80916303820F932F911D9927481736
:1005E000190681F681E08093710326CF8160DCCF0C
:1005F00008950895AF92BF92CF92DF92EF92FF924B
:100600000F931F93CF93DF936C017B018B01040F3A
:10061000151FEB015E01AE18BF08C017D10759F0D6
:100620006991D601ED91FC910190F081E02DC60118
:100630000995892B79F7C501DF91CF911F910F9112
:10064000FF90EF90DF90CF90BF90AF900895FC01A6
:10065000538D448D252F30E0842F90E0821B930B27
:10066000541710F0CF96089501970895FC01918DCD
:10067000828D981761F0A28DAE0FBF2FB11D5D96D0
:100680008C91928D9F5F9F73928F90E008958FEF72
:100690009FEF0895FC01918D828D981731F0828D26
:1006A000E80FF11D858D90E008958FEF9FEF08957D
:1006B000FC01918D228D892F90E0805C9F4F821BE1
:1006C00091098F73992708958BEA92E00E9458034D
:1006D00021E0892B09F420E0822F089580E090E04A
:1006E000892B29F00E94640381110C940000089565
:1006F000FC01A48DA80FB92FB11DA35ABF4F2C9197
:10070000848D90E001968F739927848FA689B7898D
:100710002C93A089B1898C91837080648C93938D84
:10072000848D981306C00288F389E02D80818F7D27
:1007300080830895EF92FF920F931F93CF93DF93DF
:10074000EC0181E0888F9B8D8C8D98131AC0E8890D
:10075000F989808185FF15C09FB7F894EE89FF89DC
:100760006083E889F98980818370806480839FBF7A
:1007700081E090E0DF91CF911F910F91FF90EF907A
:100780000895F62E0B8D10E00F5F1F4F0F7311278A
:10079000E02E8C8D8E110CC00FB607FCFACFE889C5
:1007A000F989808185FFF5CFCE010E947803F1CFD2
:1007B000EB8DEC0FFD2FF11DE35AFF4FF0829FB739
:1007C000F8940B8FEA89FB8980818062CFCFCF9329
:1007D000DF93EC01888D8823B9F0AA89BB89E88969
:1007E000F9898C9185FD03C0808186FD0DC00FB60F
:1007F00007FCF7CF8C9185FFF2CF808185FFEDCF8D
:10080000CE010E947803E9CFDF91CF91089508953A
:1008100020912302260F3327331F21323105ECF4B8
:1008200020916C02FC0190E080E0243069F082E0CD
:100830000895A09123022191AC014D5F5D4FA40F5B
:10084000B52FB11D2C930196861798F38091230242
:10085000680F6093230280E0089581E0089510926C
:100860006C0281E080936B021092460261E082E1AB
:100870000E94160161E083E10E941601E9EBF0E0BD
:1008800080818E7F808380818D7F808388E48093C8
:10089000B80085E48093BC000895CF93DF9391E086
:1008A000909302028823B9F0C091B800D091BA00A9
:1008B0008091BC008A7B8093BC0060E082E10E9452
:1008C000160160E083E10E9416010E942F04D0937C
:1008D000BA00C093B800DF91CF9108950895E091D8
:1008E0009B0280919A02E81730F4F0E0EE51FE4F3F
:1008F000808190E008958FEF9FEF089590919B0283
:1009000080919A022FEF3FEF981748F4E92FF0E01B
:10091000EE51FE4F208130E09F5F90939B02C90112
:10092000089580919A0290919B02891B990B0895DA
:10093000CF92DF92EF92FF920F931F93CF93DF93AB
:100940007C01CB018A0120917202222389F0EB0104
:100950006B01C40ED51ECC15DD0569F06991D70178
:10096000ED91FC910190F081E02DC7010995F3CF45
:10097000642F0E940804C801DF91CF911F910F914D
:10098000FF90EF90DF90CF900895CF93DF931F9269
:10099000CDB7DEB76983209172022223F9F020914E
:1009A0009802203258F021E030E0FC0133832283AA
:1009B00090E080E00F90DF91CF91089580919902AF
:1009C000E82FF0E0ED58FD4F998190838F5F809381
:1009D00099028093980281E090E0ECCF61E0CE0133
:1009E00001960E940804F7CFCF92DF92EF92FF9218
:1009F0000F931F93CF93DF93FC01C48121E02093D9
:100A00007202C09393021092990210929802838509
:100A1000682B88E493E00E94C504D0919802D132FB
:100A200008F092C00E9492016B017C0180916C02DF
:100A3000811165C082E080936C0281E080936B023B
:100A40008FEF80936A0210926902D0936802A3E745
:100A5000B2E0E8E4F2E080E0D81385C010924702EB
:100A600080914702CC0FC82BC09347028091460269
:100A7000813009F07CC0109246020E9492016B0105
:100A80007C01809147028093BB0080916E0290911F
:100A90006F02A0917002B0917102892B8A2B8B2B6F
:100AA00099F00E94920100916E0210916F022091C4
:100AB0007002309171026C197D098E099F09061729
:100AC000170728073907E0F18091BC0083FDD9CFD3
:100AD00085EC8093BC000E9492016B017C018091A7
:100AE0006C02823009F445C080916A028F3F61F147
:100AF00080916A02803241F180916A0225C0809122
:100B00006E0290916F02A0917002B0917102892BD8
:100B10008A2B8B2B09F48ACF0E94920100916E02DE
:100B200010916F0220917002309171026C197D0951
:100B30008E099F09061717072807390708F076CF8F
:100B400080916D020E944D041092990210929802B9
:100B500010927202DF91CF911F910F91FF90EF9051
:100B6000DF90CF9008959D9191938F5F75CF85EE23
:100B7000B0CF80916E0290916F02A0917002B091FF
:100B80007102892B8A2B8B2B09F4A9CF0E94920129
:100B900000916E0210916F022091700230917102EB
:100BA0006C197D098E099F09061717072807390751
:100BB00008F095CFC5CF90E080E00895FC0101904A
:100BC0000020E9F73197AF01481B590BBC0184E5C0
:100BD00093E00C94FA028F929F92AF92BF920F9380
:100BE0001F93CF93DF93CDB7DEB7A1970FB6F894DD
:100BF000DEBF0FBECDBF19A2423008F44AE08E011D
:100C00000F5D1F4F842E912CB12CA12CA5019401B6
:100C10000E944B0EE62FB901CA01EA30F4F4E05D00
:100C2000D801EE938D01232B242B252B79F790E00F
:100C300080E0109719F0CD010E94DE05A1960FB655
:100C4000F894DEBF0FBECDBFDF91CF911F910F9102
:100C5000BF90AF909F908F900895E95CE1CF0C9486
:100C6000DE050F931F93CF938C01C62F0E94F404CF
:100C70006C2F6460C8010E94F4046C2F6B7FC80164
:100C80000E94F40483EC90E00197F1F7CF911F915B
:100C90000F9108950F931F93CF93DF938C01D62F5D
:100CA000C42F607F642B0E94310680E1D89FB00181
:100CB00011246C2BC801DF91CF911F910F910C94DF
:100CC0003106CF93DF93CDB7DEB728970FB6F894F0
:100CD000DEBF0FBECDBF98E0E1E0F1E0DE0111968E
:100CE00001900D929A95E1F790915C03981710F49A
:100CF0008FEF890F90E0880F991F21E030E02C0FD3
:100D00003D1F820F931FFC016081606840E084E515
:100D100093E028960FB6F894DEBF0FBECDBFDF91EB
:100D2000CF910C944A0641E00E944A0681E090E08F
:100D30000895BC01990F880B990B4AE00C94EB05C0
:100D40004F925F926F927F928F929F92AF92BF92DB
:100D5000CF92DF92EF92FF92CF93DF936B017C01F2
:100D6000AC019B010E944110882391F089E391E03E
:100D7000DF91CF91FF90EF90DF90CF90BF90AF9039
:100D80009F908F907F906F905F904F900C94DE05B6
:100D900046015701E894B7F82FEF3FEF4FE75FE7C1
:100DA000C501B4010E94411081110DC02FEF3FEF2A
:100DB0004FE75FE7C501B4010E94E90E18161CF465
:100DC0008DE391E0D5CF2FEF3FEF4FE75FE4C70111
:100DD000B6010E94CF0F18161CF481E491E0C8CF31
:100DE0002FEF3FEF4FE75FECC701B6010E94E90E1E
:100DF00087FDF3CF20E030E0A901C701B6010E94D2
:100E0000E90ED0E0C0E087FF0CC041E06DE284E570
:100E100093E00E944A06F7FAF094F7F8F094C1E0E4
:100E2000D0E02AE037ED43EA5BE3C701B6010E9458
:100E30007D0E4B015C010E94EE0E6B017C010E9455
:100E40001D0F9B01AC01C501B4010E947C0E4B013A
:100E50005C014AE0C701B6010E94EB057C01EC0E83
:100E6000FD1E41E06EE284E593E00E944A068FEFAA
:100E7000E81AF80A20E030E040E251E4C501B4018C
:100E80000E94D40F2B013C010E94EE0E4B01B12CAD
:100E9000A12C4AE0C501B4010E94EB05E80EF91E41
:100EA000C501B4010E941D0F9B01AC01C301B20139
:100EB0000E947C0E20E030E040E251E40E94D40F1A
:100EC0000E94EE0E90E080E04AE00E94EB058E0D5D
:100ED0009F1DDF91CF91FF90EF90DF90CF90BF905B
:100EE000AF909F908F907F906F905F904F900895FC
:100EF00085ED8093BC0080916E0290916F02A0916D
:100F00007002B09171020796A11DB11D23E0B69544
:100F1000A795979587952A95D1F72091BC0024FD38
:100F200003C010926C02089540916E0250916F02BE
:100F30006091700270917102452B462B472B69F32B
:100F40000097A105B10541F02AE22A95F1F700C00A
:100F50000197A109B109E1CF80916D020C944D0474
:100F60001F920F920FB60F9211242F933F938F93DE
:100F70009F93AF93BF938091A7029091A802A091F5
:100F8000A902B091AA023091A20223E0230F2D37CB
:100F900058F50196A11DB11D2093A2028093A702CE
:100FA0009093A802A093A902B093AA028091A302F1
:100FB0009091A402A091A502B091A6020196A11D54
:100FC000B11D8093A3029093A402A093A502B093B5
:100FD000A602BF91AF919F918F913F912F910F905A
:100FE0000FBE0F901F90189526E8230F0296A11DA3
:100FF000B11DD2CF1F920F920FB60F9211242F93D3
:101000003F934F935F936F937F938F939F93AF9390
:10101000BF93EF93FF938BEA92E00E947803FF91D6
:10102000EF91BF91AF919F918F917F916F915F9160
:101030004F913F912F910F900FBE0F901F901895D9
:101040001F920F920FB60F9211242F938F939F939D
:10105000EF93FF93E091BB02F091BC028081E0919D
:10106000C102F091C20282FD1BC090818091C40236
:101070008F5F8F732091C502821741F0E091C40207
:10108000F0E0E555FD4F958F8093C402FF91EF91FD
:101090009F918F912F910F900FBE0F901F901895D9
:1010A0008081F4CF1F920F920FB60F9211242F93CD
:1010B0003F934F935F936F937F938F939F93AF93E0
:1010C000BF93EF93FF938091B900887F803609F436
:1010D0004AC0F0F5883209F4A7C018F5803109F448
:1010E0009BC0B8F4882309F4F9C0883009F494C08F
:1010F000FF91EF91BF91AF919F918F917F916F91F0
:101100005F914F913F912F910F900FBE0F901F90C5
:101110001895883109F488C0803251F780936A02AB
:1011200014C0803409F49DC040F48033B9F388338F
:10113000F9F680936A0285ECB0C0803509F485C069
:10114000883509F496C0883499F60E947807D0CF84
:10115000883909F48CC038F5883729F050F488367E
:1011600011F0803729F683E080936C0210924502DB
:1011700057C0883809F47BC0803919F0803809F0ED
:10118000B7CF80914502803208F071C0E0914502EE
:1011900081E08E0F809345028091BB00F0E0EB5D13
:1011A000FD4F80833DC0803B39F0E0F4803A09F484
:1011B00079C0883A09F09CCF84E080936C02109249
:1011C000240210922302E0919602F0919702099571
:1011D0008091230281110FC081E08093230210923D
:1011E000030209C0803C09F4A6CF883C09F4A3CFD0
:1011F000883B09F07DCFE091240281E08E0F80933F
:101200002402F0E0ED5FFD4F80818093BB00909160
:1012100024028091230229C0809147028093BB0061
:1012200085EC8093BC0064CF909169028091680244
:10123000981758F5E091690281E08E0F809369025A
:10124000F0E0E85BFD4F8081E9CFE091690281E049
:101250008E0F809369028091BB00F0E0E85BFD4F48
:10126000808390916902809168029817C8F285E89E
:10127000D8CFE091690281E08E0F8093690280915E
:10128000BB00F0E0E85BFD4F808380916B02811131
:101290005CCF81E08093460284EA8093BC00109288
:1012A0006C0226CF85EC8093BC0010926C0280917A
:1012B0004502803230F4E0914502F0E0EB5DFD4FF5
:1012C00010826091450270E0E0919402F0919502E5
:1012D00085E292E00995109245020ACF10926A02C7
:1012E00034CFEBEAF2E01382128288EE93E0A0E0C2
:1012F000B0E084839583A683B7832DE031E031830A
:10130000208325EC30E03587248724EC30E03787D4
:10131000268720EC30E0318B208B21EC30E0338BC2
:10132000228B22EC30E0358B248B26EC30E0378B9F
:10133000268B118E128E138E148EE8E4F3E0138246
:10134000128284839583A683B7838FE191E0918392
:101350008083A0E6B3E087E015968C93159786E12D
:1013600016968C931697E5EBF0E0E4911796EC93C4
:101370001797E1EAF0E0E4911896EC93189740E8AB
:101380005EE360E070E01D964D935D936D937C93FA
:101390005097E4E5F3E01382128281E391E09183B8
:1013A000808387E2848384E1818784E08287138657
:1013B0000895CF93DF93CDB7DEB72C970FB6F8948F
:1013C000DEBF0FBECDBF789484B5826084BD84B586
:1013D000816084BD85B5826085BD85B5816085BD30
:1013E00080916E00816080936E00109281008091E8
:1013F0008100826080938100809181008160809370
:101400008100809180008160809380008091B10094
:1014100084608093B1008091B00081608093B000BF
:1014200080917A00846080937A0080917A00826053
:1014300080937A0080917A00816080937A00809115
:101440007A00806880937A001092C100E091BB021C
:10145000F091BC0282E08083E091B702F091B80283
:101460001082E091B902F091BA028FEC8083109261
:10147000C302E091BF02F091C00286E08083E09158
:10148000BD02F091BE02808180618083E091BD0247
:10149000F091BE02808188608083E091BD02F0916E
:1014A000BE02808180688083E091BD02F091BE021F
:1014B00080818F7D808362E0809165030E9444017A
:1014C0002FB7F8948091A7029091A802A091A90249
:1014D000B091AA022FBF805D9740A109B109809306
:1014E000690390936A03A0936B03B0936C0387E343
:1014F0008093720310929B0210929A0210929902AA
:10150000109298020E942F0488EF92E09093970225
:101510008093960289EF92E09093950280939402D3
:101520001092590380915E03823018F098E09093F6
:10153000590380935C0362E370E080E090E00E94D6
:10154000B70160915F0384E593E00E94F40468EEC4
:1015500073E080E090E00E94B70160E384E593E0EF
:101560000E9431068BE496E40197F1F760E384E58D
:1015700093E00E9431060BE416E4C8010197F1F7ED
:1015800060E384E593E00E94310683E592E00197F1
:10159000F1F760E284E593E00E943106609159031F
:1015A000606240E084E593E00E944A0684E0809314
:1015B0005A0340E06CE084E593E00E944A0640E074
:1015C00061E084E593E00E944A068BE39FE1019786
:1015D000F1F782E080935B0340E066E084E593E00E
:1015E0000E944A0640E062E084E593E00E944A06D9
:1015F0000BE31FE1C8010197F1F788E080935F03D7
:1016000060E084E593E00E94F40461E082E00E94DF
:10161000440161E083E00E94440161E084E00E94B3
:10162000440161E085E00E94440161E086E00E949F
:10163000440160E088E00E94440162E089E00E9489
:10164000440189E00E94ED00892B61F48091000142
:1016500091E08927809300016CE271E080E090E0E6
:101660000E94B7010E94E901882341F0809166033E
:101670008C3009F468C048F48B3021F1C12CD12C96
:1016800090ECE92E9FE7F92E49C085518230B0F7E2
:1016900010916203612F70E0762F662766277F77AF
:1016A00080916303682B90E080E00E941D0F2DEC79
:1016B0003CEC4CEC5DE30E94D40F6B017C0117FF06
:1016C0002DC061C06091620370E090E080E00E94F4
:1016D0001D0F6B017C0100916303098307FF0AC0A2
:1016E000AC019B0160E070E080E89FEB0E947C0E03
:1016F0006B017C0119811F70612F70E090E080E028
:101700000E941F0F2DEC3CEC4CEC5DE30E94D40FCB
:10171000A70196010E947D0E6B017C010E94E901E8
:10172000882351F0809166038B3030F08D3080F14A
:101730008551823008F4CFC0412C512C80EC682EAA
:101740008FE7782E43C000916203602F70E090E035
:1017500080E00E941D0F6B017C01609163036F703C
:1017600070E090E080E00E941F0F2DEC3CEC4CEC10
:101770005DE30E94D40FA70196010E947D0E6B01CC
:101780007C0107FFCBCFF7FAF094F7F8F094C6CFBF
:101790006091610370E090E080E00E941F0F2DECEB
:1017A0003CEC4CEC5DE30E94D40F4B015C0160917A
:1017B000600370E090E080E00E941F0F9B01AC018D
:1017C000C501B4010E947D0E2B013C018EE00E94F8
:1017D00080019C01990F440B550B2C52314041095B
:1017E0005109A4E6B0E00E94400E24EF31E040E051
:1017F00050E00E94210E29833A834B835C83098148
:101800001A818FE00E94800180E10E9480019C018A
:10181000990F440B550B2150310941095109A4E698
:10182000B0E00E94400E29E933E040E050E00E9421
:10183000210E2D833E834F8358872D813E813A8729
:10184000298781E10E9480019C01990F440B550B6F
:101850002150310941095109A4E6B0E00E94400E2F
:101860002EEF33E040E050E00E94210E49013C871A
:101870002B8788E00E94ED001C01809100018823E5
:1018800009F4B5C108321105C4F50B851C85053175
:1018900011059CF111E02116310479F561E082E037
:1018A0000E94160161E083E00E94160120E030E012
:1018B00040EE51E4C701B6010E94CF0F18161CF587
:1018C00061E084E00E94160161E085E00E9416015B
:1018D00060E086E028C06091600370916103762724
:1018E0006727762790E080E00E941D0F2DEC3CECEE
:1018F0004CEC5DE30E94D40F67CF60E082E00E9471
:10190000160160E0D0CF20E030E040E451E4C701B0
:10191000B6010E94E90E87FF67C161E086E00E9480
:10192000160160E084E00E94160120E030E040EA09
:1019300052E4C301B2010E94CF0F181624F461E0F3
:1019400084E00E94160109851A8561E007341105BB
:101950000CF460E085E00E9416018FB7F894409186
:10196000A7025091A8026091A9027091AA028FBFAC
:1019700080919E0290919F02A091A002B091A1023D
:101980008A019B01081B190B2A0B3B0BD901C801CB
:10199000813D9740A105B105F8F080919C0290919E
:1019A0009D020196843091050CF034C190939D0204
:1019B00080939C0240939E0250939F026093A002EA
:1019C0007093A10240E061E084E593E00E944A0642
:1019D0008BE39FE10197F1F780919C0290919D022A
:1019E000892B71F481E00E9461068DE691E00E94EE
:1019F0002F0682E00E94610680E891E00E942F0697
:101A000080919C0290919D02019709F042C080E074
:101A10000E94610680910001882309F400C185E4D9
:101A200091E00E942F0681E00E9461068CE891E01F
:101A30000E942F06C701B6010E94A00683E991E02B
:101A40000E942F0682E00E94610685E991E00E94D3
:101A50002F06C301B2010E94A0068FE991E00E9407
:101A60002F0683E00E94610681EA91E00E942F0622
:101A700089819A818536910514F084E690E097FF7C
:101A800002C090E080E00E9499068FE991E00E94F8
:101A90002F0680919C0290919D02029709F04BC005
:101AA00080E00E94610680910001882309F4BAC099
:101AB00085E491E00E942F0681E00E9461068BEA96
:101AC00091E00E942F068D819E818536910514F04C
:101AD00084E690E097FF02C090E080E00E949906C3
:101AE0008FE991E00E942F0682E00E94610685EB5B
:101AF00091E00E942F06C4018536910514F084E61A
:101B000090E097FF02C090E080E00E9499068FE984
:101B100091E00E942F0683E00E94610681EC91E033
:101B20000E942F068DE591E02A94232811F081E68A
:101B300091E00E942F0680919C0290919D02039754
:101B400009F03FC080E00E94610680910001882377
:101B500009F46BC085E491E00E942F0681E00E94A9
:101B6000610689EC91E00E942F0682E00E94ED0060
:101B7000892B09F45DC085E691E00E942F0682E082
:101B80000E94610681ED91E00E942F0683E00E9491
:101B9000ED00892B09F44FC085E691E00E942F06E5
:101BA00083E00E94610689ED91E00E942F0684E0A7
:101BB0000E94ED00892B09F441C085E691E00E9466
:101BC0002F0668EC70E080E090E00E94B70180E0B2
:101BD00090E0892B09F435CD0E946403882309F431
:101BE00030CD0E9400002DCD60E084E06FCE60E03B
:101BF00082E00E94160160E083E00E94160160E02E
:101C000084E00E94160160E085E00E94160160E019
:101C100086E0A1CE10929D0210929C02CBCE80E570
:101C200091E0FFCE80E591E045CF80E591E094CF53
:101C300089E691E0A2CF89E691E0B0CF89E691E014
:101C4000BECF052E97FB1EF400940E94380E57FD60
:101C500007D00E944B0E07FC03D04EF40C94380EB4
:101C600050954095309521953F4F4F4F5F4F0895C8
:101C700090958095709561957F4F8F4F9F4F0895F8
:101C80000E946D0EA59F900DB49F900DA49F800D96
:101C9000911D11240895A1E21A2EAA1BBB1BFD0160
:101CA0000DC0AA1FBB1FEE1FFF1FA217B307E4073B
:101CB000F50720F0A21BB30BE40BF50B661F771F93
:101CC000881F991F1A9469F7609570958095909573
:101CD0009B01AC01BD01CF010895A29FB001B39F4C
:101CE000C001A39F700D811D1124911DB29F700D25
:101CF000811D1124911D08955058BB27AA270E94C9
:101D0000940E0C94950F0E94870F38F00E948E0F4E
:101D100020F039F49F3F19F426F40C94840F0EF44C
:101D2000E095E7FB0C947E0FE92F0E94A60F58F375
:101D3000BA17620773078407950720F079F4A6F5B0
:101D40000C94C80F0EF4E0950B2EBA2FA02D0B01AA
:101D5000B90190010C01CA01A0011124FF27591BF0
:101D600099F0593F50F4503E68F11A16F040A22FF6
:101D7000232F342F4427585FF3CF46953795279567
:101D8000A795F0405395C9F77EF41F16BA0B620B66
:101D9000730B840BBAF09150A1F0FF0FBB1F661FAD
:101DA000771F881FC2F70EC0BA0F621F731F841FF0
:101DB00048F4879577956795B795F7959E3F08F016
:101DC000B0CF9395880F08F09927EE0F97958795D8
:101DD00008950E945A0F08F481E008950E94AE0F02
:101DE00088F09F5798F0B92F9927B751B0F0E1F0DC
:101DF000660F771F881F991F1AF0BA95C9F714C08C
:101E0000B13091F00E94C80FB1E008950C94C80F52
:101E1000672F782F8827B85F39F0B93FCCF38695C4
:101E200077956795B395D9F73EF490958095709521
:101E300061957F4F8F4F9F4F0895E89409C097FB9E
:101E40003EF490958095709561957F4F8F4F9F4F91
:101E50009923A9F0F92F96E9BB279395F6958795D5
:101E600077956795B795F111F8CFFAF4BB0F11F498
:101E700060FF1BC06F5F7F4F8F4F9F4F16C088233F
:101E800011F096E911C0772321F09EE8872F762F75
:101E900005C0662371F096E8862F70E060E02AF0B6
:101EA0009A95660F771F881FDAF7880F96958795A2
:101EB00097F90895990F0008550FAA0BE0E8FEEF77
:101EC00016161706E807F907C0F012161306E407FE
:101ED000F50798F0621B730B840B950B39F40A26F7
:101EE00061F0232B242B252B21F408950A2609F4D5
:101EF000A140A6958FEF811D811D089597F99F67D9
:101F000080E870E060E008959FEF80EC0895002481
:101F10000A941616170618060906089500240A944E
:101F200012161306140605060895092E0394000CD4
:101F300011F4882352F0BB0F40F4BF2B11F460FF63
:101F400004C06F5F7F4F8F4F9F4F089557FD90588C
:101F5000440F551F59F05F3F71F04795880F97FB6D
:101F6000991F61F09F3F79F0879508951216130627
:101F70001406551FF2CF4695F1DF08C01616170656
:101F80001806991FF1CF869571056105089408958B
:101F9000E894BB2766277727CB0197F908950E941D
:101FA0005A0F08F48FEF08950E94E70F0C94950FD5
:101FB0000E94870F38F00E948E0F20F0952311F0B9
:101FC0000C947E0F0C94840F11240C94C90F0E9462
:101FD000A60F70F3959FC1F3950F50E0551F629FB8
:101FE000F001729FBB27F00DB11D639FAA27F00D72
:101FF000B11DAA1F649F6627B00DA11D661F829F99
:102000002227B00DA11D621F739FB00DA11D621F7D
:10201000839FA00D611D221F749F3327A00D611D9A
:10202000231F849F600D211D822F762F6A2F11247C
:102030009F5750409AF0F1F088234AF0EE0FFF1FAF
:10204000BB1F661F771F881F91505040A9F79E3F06
:10205000510580F00C947E0F0C94C90F5F3FE4F3A0
:10206000983ED4F3869577956795B795F795E7955C
:102070009F5FC1F7FE2B880F911D9695879597F965
:1020800008950E945A0F880B990B0895EE0FFF1FB9
:0C2090000590F491E02D0994F894FFCF26
:10209C00010000400014005400000000009A03FAF4
:1020AC00022703E703580336034A0300000000C568
:1020BC00049804DB056E0491047E046F0400000098
:1020CC00009306FA02DB0507046E616E00696E660A
:1020DC00006F7666004D4F44453A204155544F00F1
:1020EC004D4F44453A204D414E55454C004E4F4EB8
:1020FC00004F5549004F4E20004F46460053455265
:10210C00524520494E54454C4C4947454E54450088
:10211C00465241495345204155544F0054656D700A
:10212C003A2000430048756D204169723A20002521
:10213C000048756D20536F6C3A20004C756D6965C5
:10214C0072653A20005265736572766F69723A2037
:10215C0000506C7569653A2000506F6D70653A20BF
:10216C000056616E6E653A200056656E74696C3A65
:02217C00200041
:00000001FF
